:100000000C9434000C9446000C9446000C9446006A
:100010000C9446000C9446000C9446000C94460048
:100020000C9446000C9446000C9446000C94460038
:100030000C9446000C9446000C9446000C94460028
:100040000C9446000C9446000C9448000C948B00D1
:100050000C9446000C9446000C9446000C94460008
:100060000C9446000C94460011241FBECFEFD8E03C
:10007000DEBFCDBF21E0A0E0B1E001C01D92A234FF
:10008000B207E1F70E94D3000C94D7000C94000053
:100090001F920F920FB60F9211248F939F93EF939D
:1000A000FF938091C6008D3091F4E0910001F091B2
:1000B0000101EE5FFE4F80818093C600E1ECF0E02D
:1000C00080818F7780838081806280831BC0E091F4
:1000D0000001F0910101EE5FFE4F808380910001ED
:1000E000909101010196909301018093000180910C
:1000F0000001909101018034910524F010920101DA
:1001000010920001FF91EF919F918F910F900FBE80
:100110000F901F9018951F920F920FB60F921124F7
:100120008F939F93EF93FF93809100019091010132
:1001300099239CF080910001909101010197909387
:10014000010180930001E0910001F0910101EE5F57
:10015000FE4F80818093C60008C0E1ECF0E0808112
:100160008F7D8083808180688083FF91EF919F9154
:100170008F910F900FBE0F901F9018951092C50091
:1001800087E68093C400E0ECF0E080818D7F80837F
:10019000E2ECF0E0808186608083E1ECF0E0808139
:1001A0008869808308950E94BE007894FFCFF894F8
:0201B000FFCF7F
:00000001FF
